{
  "_format": "hh-sol-artifact-1",
  "contractName": "MetaShiftAdManager",
  "sourceName": "contracts/MetaShiftAdManager.sol",
  "abi": [
    {
      "inputs": [
        {
          "internalType": "address",
          "name": "adSlotNFT_",
          "type": "address"
        },
        {
          "internalType": "address",
          "name": "initialOwner",
          "type": "address"
        },
        {
          "internalType": "address",
          "name": "treasury_",
          "type": "address"
        }
      ],
      "stateMutability": "nonpayable",
      "type": "constructor"
    },
    {
      "inputs": [
        {
          "internalType": "address",
          "name": "owner",
          "type": "address"
        }
      ],
      "name": "OwnableInvalidOwner",
      "type": "error"
    },
    {
      "inputs": [
        {
          "internalType": "address",
          "name": "account",
          "type": "address"
        }
      ],
      "name": "OwnableUnauthorizedAccount",
      "type": "error"
    },
    {
      "inputs": [],
      "name": "ReentrancyGuardReentrantCall",
      "type": "error"
    },
    {
      "anonymous": false,
      "inputs": [
        {
          "indexed": true,
          "internalType": "uint256",
          "name": "id",
          "type": "uint256"
        },
        {
          "indexed": true,
          "internalType": "address",
          "name": "advertiser",
          "type": "address"
        },
        {
          "indexed": true,
          "internalType": "uint256",
          "name": "slotId",
          "type": "uint256"
        }
      ],
      "name": "CampaignCreated",
      "type": "event"
    },
    {
      "anonymous": false,
      "inputs": [
        {
          "indexed": true,
          "internalType": "uint256",
          "name": "id",
          "type": "uint256"
        },
        {
          "indexed": false,
          "internalType": "uint256",
          "name": "amount",
          "type": "uint256"
        }
      ],
      "name": "CampaignFunded",
      "type": "event"
    },
    {
      "anonymous": false,
      "inputs": [
        {
          "indexed": true,
          "internalType": "uint256",
          "name": "id",
          "type": "uint256"
        },
        {
          "indexed": false,
          "internalType": "bool",
          "name": "active",
          "type": "bool"
        }
      ],
      "name": "CampaignStatus",
      "type": "event"
    },
    {
      "anonymous": false,
      "inputs": [
        {
          "indexed": true,
          "internalType": "address",
          "name": "previousOwner",
          "type": "address"
        },
        {
          "indexed": true,
          "internalType": "address",
          "name": "newOwner",
          "type": "address"
        }
      ],
      "name": "OwnershipTransferred",
      "type": "event"
    },
    {
      "anonymous": false,
      "inputs": [
        {
          "indexed": true,
          "internalType": "uint256",
          "name": "id",
          "type": "uint256"
        },
        {
          "indexed": true,
          "internalType": "bytes32",
          "name": "viewId",
          "type": "bytes32"
        },
        {
          "indexed": false,
          "internalType": "address",
          "name": "host",
          "type": "address"
        },
        {
          "indexed": false,
          "internalType": "address",
          "name": "viewer",
          "type": "address"
        },
        {
          "indexed": false,
          "internalType": "uint256",
          "name": "amount",
          "type": "uint256"
        }
      ],
      "name": "ViewPaid",
      "type": "event"
    },
    {
      "inputs": [],
      "name": "BPS",
      "outputs": [
        {
          "internalType": "uint256",
          "name": "",
          "type": "uint256"
        }
      ],
      "stateMutability": "view",
      "type": "function"
    },
    {
      "inputs": [],
      "name": "HOST_SHARE_BP",
      "outputs": [
        {
          "internalType": "uint256",
          "name": "",
          "type": "uint256"
        }
      ],
      "stateMutability": "view",
      "type": "function"
    },
    {
      "inputs": [],
      "name": "TREASURY_SHARE_BP",
      "outputs": [
        {
          "internalType": "uint256",
          "name": "",
          "type": "uint256"
        }
      ],
      "stateMutability": "view",
      "type": "function"
    },
    {
      "inputs": [],
      "name": "VIEWER_SHARE_BP",
      "outputs": [
        {
          "internalType": "uint256",
          "name": "",
          "type": "uint256"
        }
      ],
      "stateMutability": "view",
      "type": "function"
    },
    {
      "inputs": [],
      "name": "adSlotNFT",
      "outputs": [
        {
          "internalType": "contract IAdSlotNFT",
          "name": "",
          "type": "address"
        }
      ],
      "stateMutability": "view",
      "type": "function"
    },
    {
      "inputs": [
        {
          "internalType": "uint256",
          "name": "",
          "type": "uint256"
        }
      ],
      "name": "campaigns",
      "outputs": [
        {
          "internalType": "address",
          "name": "advertiser",
          "type": "address"
        },
        {
          "internalType": "uint256",
          "name": "slotId",
          "type": "uint256"
        },
        {
          "internalType": "string",
          "name": "creativeURI",
          "type": "string"
        },
        {
          "internalType": "string",
          "name": "clickURL",
          "type": "string"
        },
        {
          "internalType": "address",
          "name": "paymentToken",
          "type": "address"
        },
        {
          "internalType": "uint256",
          "name": "budget",
          "type": "uint256"
        },
        {
          "internalType": "uint256",
          "name": "pricePerView",
          "type": "uint256"
        },
        {
          "internalType": "bool",
          "name": "active",
          "type": "bool"
        }
      ],
      "stateMutability": "view",
      "type": "function"
    },
    {
      "inputs": [
        {
          "internalType": "uint256",
          "name": "slotId",
          "type": "uint256"
        },
        {
          "internalType": "string",
          "name": "creativeURI",
          "type": "string"
        },
        {
          "internalType": "string",
          "name": "clickURL",
          "type": "string"
        },
        {
          "internalType": "address",
          "name": "paymentToken",
          "type": "address"
        },
        {
          "internalType": "uint256",
          "name": "pricePerView",
          "type": "uint256"
        }
      ],
      "name": "createCampaign",
      "outputs": [
        {
          "internalType": "uint256",
          "name": "",
          "type": "uint256"
        }
      ],
      "stateMutability": "nonpayable",
      "type": "function"
    },
    {
      "inputs": [
        {
          "internalType": "uint256",
          "name": "id",
          "type": "uint256"
        },
        {
          "internalType": "uint256",
          "name": "amount",
          "type": "uint256"
        }
      ],
      "name": "fundCampaign",
      "outputs": [],
      "stateMutability": "payable",
      "type": "function"
    },
    {
      "inputs": [],
      "name": "nextCampaignId",
      "outputs": [
        {
          "internalType": "uint256",
          "name": "",
          "type": "uint256"
        }
      ],
      "stateMutability": "view",
      "type": "function"
    },
    {
      "inputs": [],
      "name": "owner",
      "outputs": [
        {
          "internalType": "address",
          "name": "",
          "type": "address"
        }
      ],
      "stateMutability": "view",
      "type": "function"
    },
    {
      "inputs": [
        {
          "internalType": "uint256",
          "name": "id",
          "type": "uint256"
        },
        {
          "internalType": "bytes32",
          "name": "viewId",
          "type": "bytes32"
        },
        {
          "internalType": "address",
          "name": "viewer",
          "type": "address"
        }
      ],
      "name": "payView",
      "outputs": [],
      "stateMutability": "nonpayable",
      "type": "function"
    },
    {
      "inputs": [],
      "name": "renounceOwnership",
      "outputs": [],
      "stateMutability": "nonpayable",
      "type": "function"
    },
    {
      "inputs": [
        {
          "internalType": "uint256",
          "name": "id",
          "type": "uint256"
        },
        {
          "internalType": "bool",
          "name": "active_",
          "type": "bool"
        }
      ],
      "name": "setCampaignStatus",
      "outputs": [],
      "stateMutability": "nonpayable",
      "type": "function"
    },
    {
      "inputs": [
        {
          "internalType": "address",
          "name": "treasury_",
          "type": "address"
        }
      ],
      "name": "setTreasury",
      "outputs": [],
      "stateMutability": "nonpayable",
      "type": "function"
    },
    {
      "inputs": [
        {
          "internalType": "address",
          "name": "newOwner",
          "type": "address"
        }
      ],
      "name": "transferOwnership",
      "outputs": [],
      "stateMutability": "nonpayable",
      "type": "function"
    },
    {
      "inputs": [],
      "name": "treasury",
      "outputs": [
        {
          "internalType": "address",
          "name": "",
          "type": "address"
        }
      ],
      "stateMutability": "view",
      "type": "function"
    },
    {
      "inputs": [
        {
          "internalType": "bytes32",
          "name": "",
          "type": "bytes32"
        }
      ],
      "name": "viewPaid",
      "outputs": [
        {
          "internalType": "bool",
          "name": "",
          "type": "bool"
        }
      ],
      "stateMutability": "view",
      "type": "function"
    }
  ],
  "bytecode": "0x60a060405260016003553480156200001657600080fd5b506040516200164938038062001649833981016040819052620000399162000111565b816001600160a01b0381166200006957604051631e4fbdf760e01b81526000600482015260240160405180910390fd5b6200007481620000a4565b50600180556001600160a01b03928316608052600280546001600160a01b0319169190931617909155506200015b565b600080546001600160a01b038381166001600160a01b0319831681178455604051919092169283917f8be0079c531659141344cd1fd0a4f28419497f9722a3daafe3b4186f6b6457e09190a35050565b80516001600160a01b03811681146200010c57600080fd5b919050565b6000806000606084860312156200012757600080fd5b6200013284620000f4565b92506200014260208501620000f4565b91506200015260408501620000f4565b90509250925092565b6080516114cb6200017e6000396000818161024e01526107ed01526114cb6000f3fe6080604052600436106100fe5760003560e01c80638da5cb5b11610095578063d5d13fd711610064578063d5d13fd7146102b0578063eac7d186146102d0578063f0f44260146102f0578063f2fde38b14610310578063fa669d211461033057600080fd5b80638da5cb5b1461020b578063918eab1514610229578063c9c6bafc1461023c578063d1665aa61461027057600080fd5b806355115461116100d1578063551154611461019057806361d027b3146101a6578063715018a6146101de5780637903a756146101f557600080fd5b8063141961bc14610103578063249d39e9146101405780633cdbc9e11461016457806349ec81801461017a575b600080fd5b34801561010f57600080fd5b5061012361011e366004610fec565b610350565b60405161013798979695949392919061104b565b60405180910390f35b34801561014c57600080fd5b5061015661271081565b604051908152602001610137565b34801561017057600080fd5b506101566103e881565b34801561018657600080fd5b50610156611b5881565b34801561019c57600080fd5b506101566107d081565b3480156101b257600080fd5b506002546101c6906001600160a01b031681565b6040516001600160a01b039091168152602001610137565b3480156101ea57600080fd5b506101f36104b9565b005b34801561020157600080fd5b5061015660035481565b34801561021757600080fd5b506000546001600160a01b03166101c6565b6101f36102373660046110b5565b6104cd565b34801561024857600080fd5b506101c67f000000000000000000000000000000000000000000000000000000000000000081565b34801561027c57600080fd5b506102a061028b366004610fec565b60056020526000908152604090205460ff1681565b6040519015158152602001610137565b3480156102bc57600080fd5b506101f36102cb3660046110ec565b610703565b3480156102dc57600080fd5b506101f36102eb366004611133565b610bd5565b3480156102fc57600080fd5b506101f361030b366004611163565b610c8f565b34801561031c57600080fd5b506101f361032b366004611163565b610cb9565b34801561033c57600080fd5b5061015661034b3660046111d0565b610cf7565b6004602052600090815260409020805460018201546002830180546001600160a01b0390931693919261038290611267565b80601f01602080910402602001604051908101604052809291908181526020018280546103ae90611267565b80156103fb5780601f106103d0576101008083540402835291602001916103fb565b820191906000526020600020905b8154815290600101906020018083116103de57829003601f168201915b50505050509080600301805461041090611267565b80601f016020809104026020016040519081016040528092919081815260200182805461043c90611267565b80156104895780601f1061045e57610100808354040283529160200191610489565b820191906000526020600020905b81548152906001019060200180831161046c57829003601f168201915b5050505060048301546005840154600685015460079095015493946001600160a01b039092169390925060ff1688565b6104c1610eb4565b6104cb6000610ee1565b565b6104d5610f31565b600082815260046020526040902080546001600160a01b03166105325760405162461bcd60e51b815260206004820152601060248201526f24b73b30b634b21031b0b6b830b4b3b760811b60448201526064015b60405180910390fd5b600781015460ff166105715760405162461bcd60e51b8152602060048201526008602482015267496e61637469766560c01b6044820152606401610529565b60048101546001600160a01b03166105e1578134146105c25760405162461bcd60e51b815260206004820152600d60248201526c426164206d73672e76616c756560981b6044820152606401610529565b818160050160008282546105d691906112b7565b909155506106bb9050565b34156106225760405162461bcd60e51b815260206004820152601060248201526f556e65787065637465642076616c756560801b6044820152606401610529565b6004818101546040516323b872dd60e01b81523392810192909252306024830152604482018490526001600160a01b0316906323b872dd906064016020604051808303816000875af115801561067c573d6000803e3d6000fd5b505050506040513d601f19601f820116820180604052508101906106a091906112d0565b50818160050160008282546106b591906112b7565b90915550505b827f318daf69d77e946364e804495b2184222324b99fddeb42ab5fd25a919f596e8c836040516106ed91815260200190565b60405180910390a2506106ff60018055565b5050565b61070b610f31565b60008281526005602052604090205460ff16156107595760405162461bcd60e51b815260206004820152600c60248201526b105b1c9958591e481c185a5960a21b6044820152606401610529565b6000838152600460205260409020600781015460ff16801561077f575060008160060154115b801561079357508060060154816005015410155b6107ce5760405162461bcd60e51b815260206004820152600c60248201526b125b9cdd59999a58da595b9d60a21b6044820152606401610529565b60018101546040516331a9108f60e11b81526000916001600160a01b037f00000000000000000000000000000000000000000000000000000000000000001691636352211e916108249160040190815260200190565b602060405180830381865afa158015610841573d6000803e3d6000fd5b505050506040513d601f19601f8201168201806040525081019061086591906112ed565b90506000612710611b58846006015461087e919061130a565b6108889190611321565b905060006127106107d085600601546108a1919061130a565b6108ab9190611321565b90506000818386600601546108c09190611343565b6108ca9190611343565b905084600601548560050160008282546108e49190611343565b90915550506000878152600560205260409020805460ff1916600117905560048501546001600160a01b03166109435761091e8484610f5b565b6109288683610f5b565b60025461093e906001600160a01b031682610f5b565b610b6f565b60048581015460405163a9059cbb60e01b81526001600160a01b038781169382019390935260248101869052911690819063a9059cbb906044016020604051808303816000875af115801561099c573d6000803e3d6000fd5b505050506040513d601f19601f820116820180604052508101906109c091906112d0565b6109ff5760405162461bcd60e51b815260206004820152601060248201526f1a1bdcdd081e19995c8819985a5b195960821b6044820152606401610529565b60405163a9059cbb60e01b81526001600160a01b0388811660048301526024820185905282169063a9059cbb906044016020604051808303816000875af1158015610a4e573d6000803e3d6000fd5b505050506040513d601f19601f82011682018060405250810190610a7291906112d0565b610ab35760405162461bcd60e51b81526020600482015260126024820152711d9a595dd95c881e19995c8819985a5b195960721b6044820152606401610529565b60025460405163a9059cbb60e01b81526001600160a01b039182166004820152602481018490529082169063a9059cbb906044016020604051808303816000875af1158015610b06573d6000803e3d6000fd5b505050506040513d601f19601f82011682018060405250810190610b2a91906112d0565b610b6d5760405162461bcd60e51b81526020600482015260146024820152731d1c99585cdd5c9e481e19995c8819985a5b195960621b6044820152606401610529565b505b6006850154604080516001600160a01b03878116825289166020820152808201929092525188918a917fa04dd34a26dcc2b426808eda046abbd966d818132fa28dbf9fd40b5e56c236f79181900360600190a35050505050610bd060018055565b505050565b600082815260046020526040902080546001600160a01b0316331480610c0557506000546001600160a01b031633145b610c425760405162461bcd60e51b815260206004820152600e60248201526d139bdd08185d5d1a1bdc9a5e995960921b6044820152606401610529565b60078101805460ff191683151590811790915560405190815283907f7b577da6de528c5d01e407096ab1aa99b74f854e02d2bfe6a79e02652ee6f9b09060200160405180910390a2505050565b610c97610eb4565b600280546001600160a01b0319166001600160a01b0392909216919091179055565b610cc1610eb4565b6001600160a01b038116610ceb57604051631e4fbdf760e01b815260006004820152602401610529565b610cf481610ee1565b50565b6003805460009182919082610d0b83611356565b919050559050604051806101000160405280336001600160a01b031681526020018a815260200189898080601f016020809104026020016040519081016040528093929190818152602001838380828437600092019190915250505090825250604080516020601f8a018190048102820181019092528881529181019190899089908190840183828082843760009201829052509385525050506001600160a01b03878116602080850191909152604080850184905260608501899052600160809095018590528684526004825292839020855181546001600160a01b0319169316929092178255840151928101929092558201516002820190610e0f90826113d5565b5060608201516003820190610e2490826113d5565b5060808201516004820180546001600160a01b0319166001600160a01b0390921691909117905560a0820151600582015560c0820151600682015560e0909101516007909101805460ff19169115159190911790556040518990339083907f63e3678c8493a16f8ba43ae9e547231762ca04526dac2c388bd2c26d8940185190600090a498975050505050505050565b6000546001600160a01b031633146104cb5760405163118cdaa760e01b8152336004820152602401610529565b600080546001600160a01b038381166001600160a01b0319831681178455604051919092169283917f8be0079c531659141344cd1fd0a4f28419497f9722a3daafe3b4186f6b6457e09190a35050565b600260015403610f5457604051633ee5aeb560e01b815260040160405180910390fd5b6002600155565b6000826001600160a01b03168260405160006040518083038185875af1925050503d8060008114610fa8576040519150601f19603f3d011682016040523d82523d6000602084013e610fad565b606091505b5050905080610bd05760405162461bcd60e51b815260206004820152600b60248201526a1cd95b990819985a5b195960aa1b6044820152606401610529565b600060208284031215610ffe57600080fd5b5035919050565b6000815180845260005b8181101561102b5760208185018101518683018201520161100f565b506000602082860101526020601f19601f83011685010191505092915050565b6001600160a01b03898116825260208201899052610100604083018190526000916110788483018b611005565b9150838203606085015261108c828a611005565b97166080840152505060a081019390935260c0830191909152151560e090910152949350505050565b600080604083850312156110c857600080fd5b50508035926020909101359150565b6001600160a01b0381168114610cf457600080fd5b60008060006060848603121561110157600080fd5b8335925060208401359150604084013561111a816110d7565b809150509250925092565b8015158114610cf457600080fd5b6000806040838503121561114657600080fd5b82359150602083013561115881611125565b809150509250929050565b60006020828403121561117557600080fd5b8135611180816110d7565b9392505050565b60008083601f84011261119957600080fd5b50813567ffffffffffffffff8111156111b157600080fd5b6020830191508360208285010111156111c957600080fd5b9250929050565b600080600080600080600060a0888a0312156111eb57600080fd5b87359650602088013567ffffffffffffffff8082111561120a57600080fd5b6112168b838c01611187565b909850965060408a013591508082111561122f57600080fd5b5061123c8a828b01611187565b9095509350506060880135611250816110d7565b809250506080880135905092959891949750929550565b600181811c9082168061127b57607f821691505b60208210810361129b57634e487b7160e01b600052602260045260246000fd5b50919050565b634e487b7160e01b600052601160045260246000fd5b808201808211156112ca576112ca6112a1565b92915050565b6000602082840312156112e257600080fd5b815161118081611125565b6000602082840312156112ff57600080fd5b8151611180816110d7565b80820281158282048414176112ca576112ca6112a1565b60008261133e57634e487b7160e01b600052601260045260246000fd5b500490565b818103818111156112ca576112ca6112a1565b600060018201611368576113686112a1565b5060010190565b634e487b7160e01b600052604160045260246000fd5b601f821115610bd0576000816000526020600020601f850160051c810160208610156113ae5750805b601f850160051c820191505b818110156113cd578281556001016113ba565b505050505050565b815167ffffffffffffffff8111156113ef576113ef61136f565b611403816113fd8454611267565b84611385565b602080601f83116001811461143857600084156114205750858301515b600019600386901b1c1916600185901b1785556113cd565b600085815260208120601f198616915b8281101561146757888601518255948401946001909101908401611448565b50858210156114855787850151600019600388901b60f8161c191681555b5050505050600190811b0190555056fea2646970667358221220d0e2b3fb7c1b1e28eeed9ff968b73ee22aa578010cb1e4d06ff448c1899ad27d64736f6c63430008180033",
  "linkReferences": {},
  "deployedLinkReferences": {}
}